S01700006275696C642F697269732F6D61696E2E7372656343
S11300000C9469000C9488000C9488000C9488006B
S11300100C9488000C9488000C9488000C9488003C
S11300200C9488000C9488000C9488000C9488002C
S11300300C9488000C9429040C9488000C94860178
S11300400C9488000C9488000C9488000C9488000C
S11300500C9488000C9488000C9488000C948800FC
S11300600C9488000C949D010C9488000C94ED0170
S11300700C9488000C9488000C9488000C947402EE
S11300800C9453020C945E020C9469020C94870243
S11300900C9436020C9488000C9448020C9488004A
S11300A00C9488000C9488000C9488000C948800AC
S11300B00C9488000C9488000C9488000C9488009C
S11300C00C9488000C9488000C94880000020E069E
S11300D00C0411241FBECFEFD1E2DEBFCDBF12E06E
S11300E0A0E0B2E0ECE6F6E100E00BBF02C007904E
S11300F00D92A233B107D9F712E0A2E3B2E001C036
S11301001D92AB38B107E1F70E9470050C94350BD2
S11301100C9400008FB7F894992708958FBF089521
S11301207FB7F8946091B2002091390230913A027D
S113013040913B0250913C02B99B11C08091B300A5
S11301409091B200280F311D411D511D2F5F3F4F6B
S11301504F4F5F4F290F311D411D511D04C0260F04
S1130160311D411D511D872F99278FBFCA01B90128
S11301700895282F9FB7F894E82FFF27E35CFD4FDD
S113018080818F3F81F4E0917E02E21771F40BC00D
S11301902093730204C0FF27E35CFD4F2083209368
S11301A07E0220E007C025E005C0809173028F3FE6
S11301B091F7EECF892F99278FBF822F9927089522
S11301C0DF92EF92FF920F931F938FB7F894282F2B
S11301D03327D22E9091B3008091B20047B3981781
S11301E011F041FF02C02FBF71C0809144028823E7
S11301F0E1F10E949000E0903502F0903602009107
S113020037021091380220917602309177024091A2
S11302107802509179026E197F09800B910B621755
S113022073078407950720F01092440271E01EC002
S11302302E0D3F1D401F511F8091390290913A02AB
S1130240A0913B02B0913C02281B390B4A0B5B0B7B
S1130250273E31054105510540F4822F223010F02C
S113026070E005C070E082E002C070E086EE682FA6
S113027061508091B60083FDFCCF8091B200681775
S113028009F46F5F2091390230913A0240913B02A8
S113029050913C02DA01C9010196A11DB11D860FDE
S11302A0911DA11DB11D82179307A407B50710F472
S11302B0622F60958091B60083FDFCCF6093B300FC
S11302C0DFBE772319F081E00E94B9001F910F91DE
S11302D0FF90EF90DF900895AFB7F894BB27E1E06B
S11302E0E0934402609335027093360280933702A0
S11302F090933802209376023093770240937802E9
S113030050937902AFBF0E94E00008951F920F92AC
S11303100FB60F9211248F938091B0008093B00098
S11303208091B60081FDFCCF8F910F900FBE0F908E
S11303301F90189580E090E008951F920F920FB6D9
S11303400F9211242F933F938F939F93EF93FF93D7
S11303508091C00087FF2AC02091C600E0914B0223
S1130360F0914C02309711F180917A0290917B02C6
S1130370E80FF91F2083019690937B0280937A0201
S113038020917F02309180028217930778F01092B7
S11303904C0210924B0280915602833039F08091C6
S11303A0C1008F778093C10010925602FF91EF91A4
S11303B09F918F913F912F910F900FBE0F901F909F
S11303C018952FB7F89433278093C600E0ECF0E03B
S11303D08081806480832FBF089578941F920F9248
S11303E00FB60F9211242F933F934F935F936F9304
S11303F07F938F939F93AF93BF93EF93FF9320913A
S113040041023091420280916D0290916E02281750
S1130410390780F4E0914702F0914802E20FF31F9C
S113042080812F5F3F4F30934202209341020E940C
S1130430E1010BC01092480210924702109243024D
S11304408091C1008F7B8093C100FF91EF91BF9198
S1130450AF919F918F917F916F915F914F913F9158
S11304602F910F900FBE0F901F9018951F920F920F
S11304700FB60F9211248F938091C80087FF02C09A
S11304808091CE008F910F900FBE0F901F90189502
S113049078941F920F920FB60F9211240F900FBEF3
S11304A00F901F90189578941F920F920FB60F9289
S11304B011240F900FBE0F901F90189578941F92DF
S11304C00F920FB60F9211240F900FBE0F901F9032
S11304D0189578941F920F920FB60F9211240F90D3
S11304E00FBE0F901F90189578941F920F920FB61D
S11304F00F9211248F939F9380919600909197006F
S11305009F918F910F900FBE0F901F901895789424
S11305101F920F920FB60F9211242F933F938F9334
S11305209F932FB7F89433278091490290914A0200
S1130530019690934A02809349022FBF9F918F9115
S11305403F912F910F900FBE0F901F901895CF934E
S1130550DF93982F80914302882319F0CFEFDFEFC8
S11305600BC0C92FDD27C7FDD0958C2F0E94E10158
S11305708091C00086FFFCCFCE01DF91CF9108951A
S1130580FF920F931F93CF93DF93CDB7DEB72797D7
S11305900FB6F894DEBF0FBECDBF8DE090E00E9491
S11305A053078C0180913202813051F4109232024F
S11305B082E090E0D8018D939C931198109A0AC020
S11305C081E08093320282E090E0F801918380839D
S11305D01098119AF0901C02F801F3828CE090E0DC
S11305E00E945307DC01FC011582148217821682D3
S11305F0118610861386128611961C930E93F2822E
S1130600138220917C0230917D02F90180819181D5
S1130610FD0191878087F901B183A083E0913302C2
S1130620F0913402309719F082818F1520F4B09341
S11306303402A09333020983802F6AE00E942507C5
S1130640E92FFF27EE0FFF1FE95AFD4F208131816B
S1130650BB83AA83CE0101969D838C833F832E8323
S1130660CE0102969183808380917C0290917D02D9
S113067080C0248135810081118101151105D9F0D3
S1130680F80180859185892BB1F086E090E00E9485
S11306905307DC0111961C921E92FC0115821482F0
S11306A08091450290914602FC01B583A483FD012B
S11306B09383828351C030934602209345025DC0E8
S11306C0F8019281FA01828120914502309146021B
S11306D09817F0F482859385F80191878087FA0151
S11306E013870287F80155834483FA018085918535
S11306F0F90191838083FA0183818F5F83838D91D4
S11307009C9111979187808711965C934E931EC09C
S1130710FA0180859185F90191838083F8018285AE
S11307209385FA0191878087F80153874287FA01FC
S113073015830483F80183818F5F83838D919C915A
S113074011979187808711961C930E93E09145022F
S1130750F091460200811181F801408551854115CF
S1130760510509F0ADCFE0914502F0914602848134
S113077095819093460280934502E0914502F09161
S11307804602309709F075CF80911C02880F809340
S11307901C028091330290913402892B89F5809157
S11307A07C0290917D02909346028093450240E042
S11307B050E09C011AC0D9016D917C91DA010CC002
S11307C0109731F0FB019281FD018281891708F4B1
S11307D0DB01FB0160857185FB0180859185892B97
S11307E079F7AD01F901248135812115310519F716
S11307F01092460210924502509334024093330201
S1130800E0913302F09134020190F081E02D838174
S113081099279F938F93808191819F938F9380E0F9
S113082092E09F938F930E9456088DB79EB70696C9
S11308300FB6F8949EBF0FBE8DBF27960FB6F894DF
S1130840DEBF0FBECDBFDF91CF911F910F91FF90FF
S113085008951F920F920FB60F9211242F933F9376
S11308604F935F936F937F938F939F93AF93BF93B4
S1130870EF93FF938091B0008093B0008091B60015
S113088081FDFCCF8091B30099270196AA27BB274D
S11308902091390230913A0240913B0250913C023E
S11308A0280F391F4A1F5B1F2093390230933A02E5
S11308B040933B0250933C0278940E94E000FF91E5
S11308C0EF91BF91AF919F918F917F916F915F91C4
S11308D04F913F912F910F900FBE0F901F9018953D
S11308E0EF92FF920F931F93E0915502E1FF36C000
S11308F020914D0230914E0240914F02509150028E
S1130900E0905102F090520200915302109154026F
S1130910621B730B840B950B6E157F058007910783
S1130920E8F0E0FF04C0ED7FE09355020CC02E0D0B
S11309303F1D401F511F20934D0230934E024093A0
S11309404F02509350028FB7F894992722B134E0A4
S1130950232722B98FBF80E00E94B90082E00E9461
S1130960B9001F910F91FF90EF900895EF92FF92BD
S11309700F931F930E9490007B018C018FB7F89412
S11309809927109244028FBF8091550281FF3DC088
S113099080914D0290914E02A0914F02B09150026D
S11309A0A8019701281B390B4A0B5B0BDA01C9011B
S11309B020915102309152024091530250915402BD
S11309C0281B390B4A0B5B0B2F3F8FEF38078FEF38
S11309D048078FE75807C9F01216130614061506C0
S11309E02CF0C801B7010E9470040FC020936F025D
S11309F030937002409371025093720281E08093AD
S1130A004002C801B7010E946C011F910F91FF9031
S1130A10EF900895EF92FF920F931F9380914002FD
S1130A20882361F520916F02309170024091710228
S1130A3050917202EFB7F894FF27609135027091DC
S1130A4036028091370290913802E0907602F0905D
S1130A50770200917802109179026E0D7F1D801F3C
S1130A60911FEFBF20936F02309370024093710285
S1130A7050937202109240020E946C010E949000F6
S1130A800E9470041F910F91FF90EF900895809140
S1130A9073028F3F11F1282F3327F901E35CFD4FD7
S1130AA08081809373028F3F11F480937E028FEFD5
S1130AB080832F3F91F0213041F0213018F0223013
S1130AC039F008C00E94C00205C00E940A0502C095
S1130AD00E94B60481E090E0089580E090E00895DB
S1130AE0FF920F931F93FFB6F89414BE88E10FB6DC
S1130AF0F89480936000109260000FBE43E050E0D1
S1130B006FEF70E08DE392E00E944F088FEF8093C7
S1130B10730280937E0281E08093810080E280935F
S1130B20B60083E08093B1008091840090918500A9
S1130B304AE720918400309185002817390708F48A
S1130B404150442311F0C901F4CF9091B200809137
S1130B50B2008917E1F320918400309185009091CF
S1130B60B2008091B2008917E1F3809184009091E2
S1130B708500821B930B409635E0969587953A95B0
S1130B80E1F790937502809374021092B100809102
S1130B90B10080938100809181008093B60010920F
S1130BA0B20010928500109284008FEF87BB87B348
S1130BB086BB8091B6008571E1F70A9A099A089A72
S1130BC0129A119A109A18B88FEF87B90C98149842
S1130BD0109295001092940080917100816080932E
S1130BE0710080919100887F8260809391000E94BF
S1130BF047058823E1F78DE192E090938802809382
S1130C00870212E006E060917402709175028827F1
S1130C1099272CE0660F771F881F991F2A95D1F713
S1130C2020E031EE40E050E00E9431072150304096
S1130C302093C400832F99278093C5001093C0008C
S1130C400093C2001092C1002093CC008093CD0089
S1130C501093C8000093CA001092C90084E490E085
S1130C6090936C0280936B028091C1008F7B809380
S1130C70C1008091C1008F778093C1001092560209
S1130C80109243028091C10088608093C1008091DA
S1130C90C10080618093C1008091C100806880930D
S1130CA0C1008091B60080628093B6008091B60046
S1130CB081FDFCCF82E08093B0008091B60080FD7E
S1130CC0FCCF83E08093B1008091B60083FDFCCF1C
S1130CD086EE8093B30080917000826080937000F0
S1130CE00E94E0000E9447058823E1F78F2D992791
S1130CF08FBF7894E7E5F2E01192119282E0EB362F
S1130D00F807D1F70E94900060934D0270934E0251
S1130D1080934F029093500288EE93E0A0E0B0E0FD
S1130D208093510290935202A0935302B0935402C1
S1130D30809155028E7F82608093550282E00E94EA
S1130D40B9008FB7F894482F552757C08091700089
S1130D50992783709070892B19F4E5E0F0E014C0B2
S1130D608091B6008A71E1F78091B3009091B2004E
S1130D70891B8C3038F08091B200853F18F4E3E091
S1130D80F0E002C0E2E0F0E080916E00867009F5C8
S1130D9080916F008E72E9F4809171008E72C9F4B3
S1130DA00CB407FC16C08091C100887191F4809145
S1130DB0C900887171F48091BC0082FD0AC08091E1
S1130DC07A0087FF03C081E090E005C085E090E0F1
S1130DD002C080E090E023B78E1708F4E82FFF27C5
S1130DE0E453FF4FE491207F2160E22BE3BF78942A
S1130DF08895F89483B78E7F83BF809173028F3F69
S1130E0009F4A4CF282F3327F901E35CFD4F808137
S1130E10809373028F3F11F480937E028FEF80835F
S1130E202F3F09F493CF4FBF213049F0213020F0F8
S1130E30223009F086CF06C00E94C00282CF0E94F1
S1130E400A057FCF0E94B6047CCF991B79E004C0C9
S1130E50991F961708F0961B881F7A95C9F78095F5
S1130E600895A1E21A2EAA1BBB1BFD010DC0AA1FE7
S1130E70BB1FEE1FFF1FA217B307E407F50720F0FF
S1130E80A21BB30BE40BF50B661F771F881F991F7A
S1130E901A9469F760957095809590959B01AC01C3
S1130EA0BD01CF010895CF93DF93AC01029710F4F5
S1130EB042E050E0A0918302B0918402FD01C0E0C1
S1130EC0D0E020E030E020C0808191818417950734
S1130ED069F482819381209719F09B838A8304C0EB
S1130EE09093840280938302CF0132C0481759073C
S1130EF038F42115310519F08217930708F49C0181
S1130F00EF010280F381E02D3097F1F621153105D0
S1130F1089F1C901841B950B049708F4A901E0E049
S1130F20F0E026C08D919C91119782179307E9F404
S1130F304817590779F4ED018A819B81309719F09C
S1130F409383828304C09093840280938302CD01AF
S1130F5002964CC0841B950BFD01E80FF91F4193C9
S1130F60519302978D939C933DC0FD01A281B3815F
S1130F701097C1F68091810290918202892B41F4ED
S1130F8080912D0290912E0290938202809381028F
S1130F9020912F02309130022115310541F42DB7F3
S1130FA03EB780912B0290912C02281B390BE091C3
S1130FB08102F0918202E217F307B0F42E1B3F0B7B
S1130FC02417350788F0CA0102962817390760F0FC
S1130FD0CF01840F951F0296909382028093810221
S1130FE041935193CF0102C080E090E0DF91CF9113
S1130FF00895CF93DF93009709F44EC0EC01229734
S11310001B821A82A0918302B0918402109711F17D
S113101040E050E001C0DC01AC17BD0700F1BB8328
S1131020AA83FE0121913191E20FF31FEA17FB0716
S113103071F42E5F3F4F8D919C911197820F931FF6
S113104099838883FD01828193819B838A834115DF
S1131050510559F4D0938402C09383021DC0FD014D
S113106082819381AD010097B1F6FA01D383C283E3
S113107021913191E20FF31FEC17FD0769F42E5F04
S11310803F4F88819981820F931FFA019183808356
S11310908A819B8193838283DF91CF910895DC01C0
S11310A001C06D9341505040E0F70895A2E0B0E0D4
S11310B0ECE5F8E00C940E0BFE013796619171910A
S11310C0FA83E983AF0180918702909188020E949C
S11310D06D08E2E022960C942A0BABE0B0E0E3E763
S11310E0F8E00C94000B3C014B016A01FC011782EF
S11310F01682838181FD03C08FEF9FEFDAC1F30174
S11311003381F40133FD859133FF81914F018823AD
S113111009F4CCC1853239F433FD859133FF8191D3
S11311204F01853229F4B30199270E94730AE7CF4E
S113113000E0442455244AE00032B0F48B3269F0D4
S11311408C3228F4803251F0833271F40BC08D322A
S113115039F0803349F4016028C00260046025C07E
S1131160086023C0006121C007FD29C0282F205337
S11311702A3078F406FF06C0549EC0011124522E72
S1131180580E13C0449EC0011124422E480E006222
S11311900CC08E3221F406FD89C1006406C08C3671
S11311A011F4006802C0883651F4F40133FD8591CE
S11311B033FF81914F01882309F46FC0BDCF982F6D
S11311C08554833018F08052833038F424E030E0C2
S11311D0C20ED31E8FE389830FC0933631F0933749
S11311E099F0933509F05BC023C0F60180818983AF
S11311F022E030E0C20ED31E7E010894E11CF11CF3
S113120051E0A52EB12C12C0F601E080F18006FD5C
S113121003C06FEF7FEF02C0652D772722E030E037
S1131220C20ED31EC7010E94680A5C010F7713C067
S1131230F601E080F18006FD03C06FEF7FEF02C08E
S1131240652D772722E030E0C20ED31EC7010E942D
S11312505D0A5C01006803FF07C01BC0B30180E2A4
S113126090E00E94730A4A94842D9927A816B9061F
S1131270A8F30FC0F70107FD859107FF81917F0156
S1131280B30199270E94730A41104A940894A10853
S1131290B108A114B10471F706C190E03EC09436C0
S11312A011F0993691F507FF0AC0F601608171814A
S11312B08281938124E030E0C20ED31E0DC0F6017A
S11312C0808191819C01B901882777FD8095982FB1
S11312D042E050E0C40ED51E4FE6B42EB02297FF74
S11312E009C090958095709561957F4F8F4F9F4F62
S11312F050E8B52A8E010F5F1F4F2AE030E0A801A5
S11313000E94A00AA82EA01A4DC0953731F43FEED2
S1131310F32EF0222AE030E023C029EFF22EF0224F
S11313209F3661F0903720F4983509F0BFC012C0A1
S1131330903739F0983709F0B9C005C028E030E09B
S11313400FC080E1F82AF4FE02C094E0F92A20E1FB
S113135030E006C0F4FE02C0E6E0FE2A20E132E0FE
S1131360F7FE0AC0F601608171818281938144E0B5
S113137050E0C40ED51E0BC0F60180819181AC01F2
S1131380BA0188279927E2E0F0E0CE0EDF1E8E0135
S11313900F5F1F4FA8010E94A00AA82EA01A8FE772
S11313A0B82EBF20B6FE10C0FEEFBF22A51460F415
S11313B02B2D332724FF1AC022FF02C0052D09C09C
S11313C02FEEB222052D01C00A2D2B2D332724FF29
S11313D00EC0FE01EA0DF11D8081803319F439EE4F
S11313E0B32209C00F5F22FF06C004C0052D822F5F
S11313F0867809F00F5FEB2CFF24E3FC14C0E0FEB9
S11314000FC0041510F05A2C0BC0542C501A5A0C4F
S1131410042D06C0B30180E290E00E94730A0F5FBE
S11314200415C0F304C0041510F4401A01C0442488
S1131430E4FE10C0B30180E390E00E94730AE2FE70
S11314401EC0E1FE03C088E590E002C088E790E09A
S1131450B3010CC08E2D867891F0E1FE02C08BE2C0
S113146001C080E2B7FC8DE2B30199270E94730AA0
S113147006C0B30180E390E00E94730A5A94A51455
S1131480C0F3AA94FE01EA0DF11D8181B3019927ED
S11314900E94730AAA2039F0F4CFB30180E290E0ED
S11314A00E94730A4A944420C1F729CEF30186812D
S11314B09781E0E12B960C941C0BFC010590615084
S11314C070400110D8F7809590958E0F9F1F089556
S11314D0FC016150704001900110D8F780959095FF
S11314E08E0F9F1F08950F931F93CF93DF938C014B
S11314F0EB018B81992781FF1BC082FF0DC02E81D8
S11315003F818C819D812817390764F4E881F98132
S11315100193F983E88306C0E885F985802F09954E
S1131520892B31F48E819F8101969F838E8302C023
S11315300FEF1FEFC801DF91CF911F910F91089515
S1131540FA01AA27283051F1203181F1E8946F93F0
S11315506E7F6E5F7F4F8F4F9F4FAF4FB1E03ED096
S1131560B4E03CD0670F781F891F9A1FA11D680F34
S1131570791F8A1F911DA11D6A0F711D811D911D67
S1131580A11D20D009F468943F912AE0269F1124DC
S11315903019305D3193DEF6CF010895462F477040
S11315A0405D4193B3E00FD0C9F7F6CF462F4F709B
S11315B0405D4A3318F0495D31FD4052419302D0F9
S11315C0A9F7EACFB4E0A69597958795779567959F
S11315D0BA95C9F700976105710508959B01AC019F
S11315E00A2E06945795479537952795BA95C9F7C6
S11315F0620F731F841F951FA01D08952F923F92A1
S11316004F925F926F927F928F929F92AF92BF920E
S1131610CF92DF92EF92FF920F931F93CF93DF93BA
S1131620CDB7DEB7CA1BDB0B0FB6F894DEBF0FBE17
S1131630CDBF09942A88398848885F846E847D8464
S11316408C849B84AA84B984C884DF80EE80FD8066
S11316500C811B81AA81B981CE0FD11D0FB6F894DC
S10F1660DEBF0FBECDBFED010895FFCF2B
S113166C545241434520414C41524D3A2025642C5F
S113167C2053434F52452025640D0A0001000000FD
S113168C0200000000A7020000000020008B0200F2
S105169C000048
S9030000FC
